:020000040800F2
:1000000008070020350200083F1500089D1300086E
:100010003D1500082B040008D91900080000000055
:100020000000000000000000000000004315000870
:100030002D040008000000004115000845150008C7
:100040004F0200084F0200084F0200084F0200084C
:100050004F0200084F0200084F0200084F0200083C
:100060004F0200084F0200084F0200084F0200082C
:100070004F0200084F0200084F0200084F0200081C
:100080004F0200084F0200084F0200080000000065
:100090000000000000000000000000004F02000807
:1000A0004F0200084F0200084F0200084F020008EC
:1000B0004F0200084F0200084F0200084F020008DC
:1000C0004F0200084F0200084F0200084F020008CC
:1000D0004F020008CD1900084F0200080000000080
:1000E0004F0200084F0200084F0200080000000005
:1000F0000000000000000000000000004F020008A7
:10010000000000004F0200084F0200084F020008E4
:1001100000000000000000000000000000000000DF
:100120004F0200084F0200084F0200084F0200086B
:100130004F02000800000000000000000000000066
:100140000000000000000000000000004F02000856
:100150004F0200084F0200084F0200084F0200083B
:100160004F0200084F0200080000000000000000DD
:10017000000000000000000000000000000000007F
:10018000000000004F020008000000000000000016
:100190004F02000800F002F800F03CF80AA090E8D6
:1001A000000C82448344AAF10107DA4501D100F032
:1001B00031F8AFF2090EBAE80F0013F0010F18BFC3
:1001C000FB1A43F001031847B41C0000D41C0000C4
:1001D000103A24BF78C878C1FAD8520724BF30C873
:1001E00030C144BF04680C60704700000023002445
:1001F00000250026103A28BF78C1FBD8520728BF37
:1002000030C148BF0B6070471FB501F025FE1FBD10
:1002100010B510BD00F0CFF81146FFF7F5FF01F063
:1002200089FD00F0EDF803B4FFF7F2FF03BC00F026
:10023000F5F800000948804709480047FEE7FEE757
:10024000FEE7FEE7FEE7FEE7FEE7FEE7FEE7FEE786
:1002500004480549054A064B70470000DD150008B3
:10026000950100080801002008070020080300206D
:100270000803002053EA020C00F069802DE9F04BDE
:100280004FF00006002B1FBFB3FA83F503FA05F405
:1002900024FA05F65E4012BF1643B2FA82F502FA5E
:1002A00005F4C5F120051EBF22FA05FC44EA0C0442
:1002B000203556EA044C4FEA144418BF641C4FF032
:1002C00000084FF00009904271EB030C39D300296C
:1002D00019BFB1FA81F701FA07F6B0FA80F700FA10
:1002E00007F6C7F120071EBF20FA07FC46EA0C06F6
:1002F0002037B6FBF4FCA7EB0507103F07F01F0BF8
:10030000CBF120060CFA0BFB2CFA06F644BFB346E1
:100310000026202FA4BF5E464FF0000B5BEA060CC0
:1003200008BF4FF0010B19EB0B09ABFB027C48EB4C
:100330000608C01B06FB02CC0BFB03CC71EB0C01C7
:10034000C1E70B46024641464846BDE8F08B13B56F
:100350004FF000004FF00001AFF30080BDE81C40FB
:1003600070474FF0000200B5134694469646203978
:1003700022BFA0E80C50A0E80C50B1F12001BFF45E
:10038000F7AF090728BFA0E80C5048BF0CC05DF8C4
:1003900004EB890028BF40F8042B08BF704748BF12
:1003A00020F8022B11F0804F18BF00F8012B704786
:1003B000704770477047754600F02CF8AE46050050
:1003C0006946534620F00700854618B020B5FFF770
:1003D0003FFFBDE820404FF000064FF000074FF010
:1003E00000084FF0000B21F00701AC46ACE8C00953
:1003F000ACE8C009ACE8C009ACE8C0098D4670475C
:1004000010B50446AFF300802046BDE81040FFF76A
:100410000ABF000000487047A800002001491820CA
:10042000ABBEFEE7260002007047FEE7704772B6DB
:10043000FEE72DE9F0410446876D00F069F90646B4
:1004400094F835000025022806D08020606584F8E5
:1004500034500120BDE8F0812068016821F01601C8
:1004600001602068416921F080014161206C08B978
:10047000A06C20B12068016821F0080101602068AB
:10048000016821F0010101600CE000F041F9801BDE
:10049000052807D920206065032084F8350084F8FA
:1004A0003450D7E720680068C007EED194F85C109C
:1004B0003F208840B860012084F8350084F834502B
:1004C0000020C7E790F83510022903D0802141654C
:1004D00001207047052180F835100068016821F07F
:1004E000010101600020704770B5044600F010F96A
:1004F0000546601C02D004480078044400F008F966
:10050000401BA042FAD370BD0C0000202DE9F84F2B
:10051000DFF8B8A10022012403254FF00F090AF1EA
:10052000040BAAF1040E00BF0B6804FA02F6334074
:10053000B34273D10F7907F00307012F01D0022FC7
:1005400016D187684FEA420805FA08FC27EA0C072B
:10055000D1F80CC00CFA08FC4CEA070CC0F808C033
:100560004768B7430E79C6F3001696403E4346608F
:100570000E79F643B6070DD0C768560005FA06FC9B
:1005800027EA0C07D1F808C00CFA06FC4CEA070C65
:10059000C0F80CC00E7906F00306022E10D1D60862
:1005A00000EB8608D8F8206057074FEAD76C09FAA5
:1005B0000CF7BE430F6907FA0CF73743C8F82070F1
:1005C00006684FEA420C05FA0CF7BE430F7907F0B4
:1005D000030707FA0CF7374307604E6816F4403FED
:1005E0006DD03B4E376847F480473760366822F05D
:1005F000030706F480460096364E07EB060CDCF83F
:10060000086897073F0F09FA07F826EA0806DFF897
:10061000C880404503D14FF000081EE04FE0DFF8EE
:10062000BC80404502D14FF0010816E0DFF8B080F1
:10063000404502D14FF002080FE0DFF8A8804045A6
:1006400002D14FF0030808E0DFF89C80404502D15A
:100650004FF0040801E04FF0070808FA07F848EAED
:100660000608CCF80888DAF800605746D1F804C0CC
:100670009E435FEACC2C00D51E433E60DBF8006051
:100680005F46D1F804C09E435FEA8C2C00D51E4320
:100690003E60DEF800607746D1F804C09E435FEA12
:1006A0008C3C00D51E433E60084F083F3E68D1F8A1
:1006B00004C09E435FEACC3C00D51E433E60521C02
:1006C000102AFFF431AFBDE8F88F0000083C01406C
:1006D0004438024000300140000002400004024063
:1006E00000080240000C024000100240006908406F
:1006F00000D001207047426921EA02030A4043EA20
:100700000241816170470AB1816170470904FBE7CA
:1007100001488068704700000C0000200248816892
:1007200002781144816070470C0000200B4810B51E
:10073000016841F400710160016841F48061016069
:10074000016841F480710160032000F06FF80F2010
:1007500000F006F800F024F8002010BD003C024034
:1007600070B50D4D04464FF47A712878B1FBF0F066
:100770000A490968B1FBF0F000F00CFB48B9102CF5
:1007800007D200222146501E00F030F800206C6095
:1007900070BD012070BD00000C000020180000207A
:1007A0000A4808B5016841F480410160006800F41E
:1007B000804000900548001F016841F080510160B1
:1007C000006800F08050009008BD000044380240EE
:1007D000002809DB00F01F02012191404009800040
:1007E00000F1E020C0F8001170470000F0B40E4B9B
:1007F0001B680C46C3F30223C3F10705042D00D97F
:100800000425191D072901D2002300E0DB1E012663
:1008100006FA05F1491E214099409E40761E164079
:100820003143F0BC01F0D9B80CED00E0064900F00E
:10083000070208684FF6FF03184040EA0220034A07
:1008400010430860704700000CED00E00000FA055E
:100850002DE9F0470E46050065D0DFF81481D8F881
:100860000000F7B200F00700B04207D288F800702D
:10087000D8F8000000F00700B04254D128683D4C81
:10088000810712D5400703D5206840F4E05020606E
:100890002878000703D5206840F460402060206875
:1008A000A96820F0F000084320602878C0072DD008
:1008B000304968680839012812D0022813D003286B
:1008C00011D00968890700292DDA216821F0030178
:1008D00001432160FFF71CFF814641F2883A0EE098
:1008E00009688903EFE709688901ECE7FFF710FF62
:1008F000A0EB0901514502D90320BDE8F08720682B
:10090000696800F00C00B0EB810FEFD1D8F800104F
:10091000404601F00701B14207D90770006800F0B6
:100920000700B04201D00120E7E72878400705D54D
:100930002068E96820F4E050084320602878000728
:1009400006D52068296920F4604040EAC100206093
:1009500000F038F82168084AC1F30311515CC8401F
:100960000649086006480068FFF7FAFE0020C4E761
:10097000003C024008380240621E000818000020B7
:10098000100000200448054900680968044AC1F3C2
:100990008221515CC840704718000020083802408E
:1009A000721E00080448054900680968044AC1F33A
:1009B0004231515CC840704718000020083802409E
:1009C000721E0008154810B5006810F00C0214489B
:1009D00013D01449042A0FD0082A0ED10F4C241F1B
:1009E0002268236802F03F025B0207D52068C0F34B
:1009F0008810A0FB010106E0084610BD2168C1F384
:100A00008811A1FB00010023FFF734FC2168C1F32A
:100A10000141491C4900B0FBF1F010BD083802400B
:100A20000024F40040787D012DE9F84F04006ED0D9
:100A30002078DFF84C93C007A9F104054AD009F1EA
:100A400004000168C1F38101012908D00068C0F3E6
:100A5000810002280AD1D9F80000400206D5286892
:100A6000800337D560680028E1D033E06068B0F5D6
:100A7000803F10D0B0F5A02F286810D020F480302F
:100A80002860286820F4802028606068A8B1FFF7FB
:100A90003FFE06460DE0286840F48030F4E740F45D
:100AA00080202860F7E700BFFFF732FE801B642834
:100AB00073D828688003F7D50CE0FFF729FE0646B7
:100AC00005E000BFFFF724FE801B6428F0D82868EB
:100AD0008003F7D42078DFF8AC8280074FF0000A5B
:100AE0003ED5A748001D016811F00C0F08D0006822
:100AF000C0F3810002280BD1D9F80000400207D4CE
:100B00002868800716D5E068012800D112E033E19B
:100B1000E068B8B10120C8F80000FFF7F9FD06460B
:100B200005E000BFFFF7F4FD801B0228C0D828684D
:100B30008007F7D52868216920F0F80040EAC10055
:100B400028600DE0C8F800A0FFF7E2FD064604E0CB
:100B5000FFF7DEFD801B02281FD828688007F7D426
:100B60002078000722D5864F87486169703771B1B8
:100B700001210160FFF7CCFD064604E0FFF7C8FD48
:100B8000801B022809D838688007F7D50EE0C0F826
:100B900000A0FFF7BDFD064605E082E0FFF7B8FDC7
:100BA000801B02287DD838688007F7D4207840075A
:100BB00068D5DFF8CCB100270BF13C0BDBF8000067
:100BC000C0000BD4DBF8001041F08051CBF80010CE
:100BD000DBF80000012700F0805000906B4E306879
:100BE000C00510D4306840F480703060FFF790FD8D
:100BF000009005E0FFF78CFD0099401A022850D8BC
:100C00003068C005F6D55E4EA0686C3601280FD05E
:100C10000528306810D020F001003060306820F0E6
:100C200004003060A068B8B1FFF772FD00900FE0DB
:100C3000306840F00100F4E740F004003060F7E76E
:100C4000FFF766FD0099411A41F28830814266D86B
:100C500030688007F4D50EE0FFF75AFD009007E0FA
:100C6000FFF756FD0099411A41F28830814256D86B
:100C700030688007F4D42FB1DBF8001021F08051E8
:100C8000CBF80010A069C8B33D49091D0968C1F33C
:100C9000810102294AD00228504607D0C8F86000D6
:100CA00000E03CE0FFF734FD04463BE04746C8F86F
:100CB0006000FFF72DFD064605E000BFFFF728FDA9
:100CC000801B02282BD828688001F7D4D4E90701BB
:100CD0000843A16A2E4A490802EB0141626A41EACF
:100CE0008211084394F82C1040EA0161C9F8001001
:100CF00001203866FFF70CFD044606E03EE000BF29
:100D0000FFF706FD001B022809D828688001F7D5E7
:100D100034E000BFFFF7FCFC001B022802D90320CF
:100D2000BDE8F88F28688001F4D427E00128F7D0C7
:100D3000D9F80000E26900F4800191421CD1226AD6
:100D400000F03F01914217D147F6C071626A01403D
:100D5000B1EB821F10D1A26A4FF0FF3300F4403193
:100D600003EB5202B1EB024F06D194F82C1000F0C5
:100D70007060B0EB016F01D00120D1E70020CFE718
:100D80000438024000004742800E47420070004095
:100D90000000FFFF10B5401EB0F1807F01D301209D
:100DA00010BD4FF0E02460610F21601700F015FEC8
:100DB0000020A06107202061002010BD70B590F8D0
:100DC0003C20012A2CD0012480F83C40022280F8EB
:100DD0003D2003685A689D6822F070060A68324315
:100DE0005A60104B02689A420ED0B2F1804F0BD07D
:100DF0000D4B9A4208D00D4B9A4205D00C4B9A42AB
:100E000002D00C4B9A4204D1496825F08003194363
:100E1000916080F83D40002180F83C10084670BD8C
:100E2000022070BD000001400004004000080040A6
:100E3000000C00400040014010B5040003D094F8BD
:100E40003D0010B107E0012010BD002084F83C00F7
:100E5000204600F01FF8022084F83D00211D206884
:100E600000F0E2FB012084F8460084F83E0084F89C
:100E70003F0084F8400084F8410084F8420084F880
:100E8000430084F8440084F8450084F83D000020C5
:100E900010BD000008B500680649884208D1064820
:100EA000016841F001010160006800F0010000905C
:100EB00008BD0000000001404438024070B50446FF
:100EC00090F83C000025012817D0012684F83C60EA
:100ED000022084F83D002068826822F0770222F424
:100EE0007F4282600868502838D00DDC20284FD01F
:100EF00005DC90B3102811D14AE0022070BD3028E3
:100F000046D040280AD13BE060282FD070280DD071
:100F1000B0F5805F03D0B0F5005F12D0012584F8F2
:100F20003D60002084F83C00284670BDCB68D1E9C4
:100F30000121206800F0C4FB2068816841F077013E
:100F400009E0CB68D1E90121206800F0B9FB2068F5
:100F5000816841F480418160E1E719E0CA6849682D
:100F6000206800F0BFFB5021206806E0CA6849688D
:100F7000206800F0C8FB6021206800F0ABFBCEE7E2
:100F8000CA684968206800F0ADFB40212068F4E79A
:100F9000226801461046F0E770477047F8B50168CF
:100FA00004460868CA684B6910F00F0F4FF000053F
:100FB00059D003F0010602F49077374365D0C1079A
:100FC00005D0D10503D5216C41F001012164410711
:100FD00005D5D90703D0216C41F0020121648107B6
:100FE00005D5D90703D0216C41F004012164010724
:100FF00007D502F02001314303D0216C41F00801F4
:101000002164216C00293AD0800604D5900602D5CF
:10101000204600F0B9FB20684069216CC0F38010C5
:10102000090700D460B3204600F087FB20684069C0
:10103000400621D52068143050E8001F21F04001FF
:1010400040E80012002AF5D1A06BA8B16C490165F7
:10105000A06BFFF737FA002811D0A06B016D01B02B
:10106000BDE8F040084783060FD593060DD520460E
:10107000BDE8F84000F088BB2046FFF78EFFF8BDC2
:101080002046FFF78AFF2564F8BD266B2023012E3A
:1010900079D1C60677D5D60675D508684868009018
:1010A0004869400640D5A16B086840680004000C00
:1010B000EAD0A28D8242E7D9E085C869B0F5807F89
:1010C0002DD020680C3050E8001F21F4807140E8DA
:1010D0000012002AF5D12068143050E8001F21F0DA
:1010E000010140E80012002AF5D12068143050E8D0
:1010F000001F21F0400140E80012002AF5D184F8D9
:101100003E30256320680C3050E8001F21F01001AC
:1011100040E80012002AF5D1A06BFFF78AF9A08DF4
:10112000E18D401A81B229E0A08DE18D401A81B293
:10113000E08D0028A8D00029A6D020680C3050E807
:10114000002F22F4907240E80026002EF5D120688E
:10115000143050E8002F22F0010240E80026002E53
:10116000F5D184F83E30256320680C3050E8002F1C
:1011700022F0100240E80023002BF5D12046FFF7B3
:101180000BFFF8BDFFE705062BD5150629D594F80A
:101190003D002128F5D1A068B0F5805F01D120691C
:1011A000B0B1206A411C2162216800784860E08C5F
:1011B000401E0004000CE084E3D12068C16821F0E7
:1011C0008001C1602068C16841F04001C160D8E77A
:1011D000206A0088C0F308004860206A801C2062F2
:1011E000E5E74006CDD55006CBD5CA68204622F0AB
:1011F0004002CA6084F83D3000F0CFF8C1E700003B
:101200002B17000870B5040004D094F83D000025A9
:1012100010B106E0012070BD84F83C50204600F07B
:1012200023F8242084F83D002068C16821F400518F
:10123000C160204600F008FB2068016921F490415C
:1012400001612068416921F02A0141612068C1687B
:1012500041F40051C1602564202084F83D0084F8E9
:101260003E00002070BD000010B586B00446142179
:101270006846FFF776F818492068884229D1174850
:101280000021026842F010020260006800F01000C5
:10129000059012481438026842F0010202600068AA
:1012A00000F0010005904FF4C06000900220CDE9ED
:1012B0000101032003900720049069460848FFF7C6
:1012C00025F9002211462520FFF790FA2520FFF787
:1012D0007FFA06B010BD0000001001404438024003
:1012E00000000240704700002DE9F843044690F8E2
:1012F0003D001F4616460D4620284CD1C5B1BEB153
:1013000094F83C00012846D0012084F83C004FF0BE
:101310000008C4F84080212084F83D00FFF7F8F968
:10132000A6848146E684A068B0F5805F03D004E01F
:101330000120BDE8F883206928B12E465FF0000542
:1013400084F83C800EE00026FAE78021204600F079
:1013500001FBA0B9AEB116F8010B21684860E08C22
:10136000401EE084E08C4B464FF0000200970028BE
:10137000EBD14FF04001204600F0ECFA30B10320F1
:10138000D7E735F8020BC0F30800E6E7202084F821
:101390003D000020CDE70220CBE77047FEE70000CC
:1013A0002DE9F04387B014216846FEF7DAFF37488D
:1013B0000024016841F004010160016801F00401AA
:1013C0000591016841F080010160016801F0800130
:1013D0000591016841F001010160016801F001011E
:1013E0000591016841F0020101600068284F00F09A
:1013F00002004FF400550590002229463846FFF7B9
:1014000082F9DFF89080002240F614014046FFF791
:101410007AF9DFF884906E11002231464846FFF7D2
:1014200072F900950125CDE90154694638460394C7
:10143000FFF76CF814200090CDE90154694640464E
:101440000394FFF763F8E802CDE90005CDE9025403
:1014500069464046FFF75AF828038DE8310069468F
:101460004046FFF753F8CDE90065CDE902546946DF
:101470004846FFF74BF868028DE831006946484658
:10148000FFF744F807B0BDE8F083000030380240B1
:1014900000080240000002400004024010B586B07F
:1014A000002417480094019402940394049413496F
:1014B000059401605321C0E901144FF6FF71C0E9A2
:1014C000031444618461FFF7B7FC08B1FEF7AFFF76
:1014D0004FF48050009069460948FFF7EFFC08B1CF
:1014E000FEF7A5FF049404A905480594FFF766FCE0
:1014F000002801D0FEF79BFF06B010BD00000140A0
:101500001C0000200C4810B50A4901604FF4165128
:101510004160002181600C22C160C0E90412816138
:10152000C161FFF76FFE002803D0BDE81040FEF751
:101530007EBF10BD0010014064000020FEE7FEE702
:1015400070477047FFF7EAB830B593B0302168466E
:10155000FEF707FF14210CA8FEF703FF1D48002526
:10156000016841F080510160006800F080501190E6
:101570001948016821F4404141F4004101600068CC
:10158000022400F4404011900120009000040190DA
:101590008001CDE9064019200890A820CDE9090472
:1015A00004200B906846FFF73FFA08B172B6FEE7D9
:1015B0000CA90F2081E831004FF48050CDE90F05D0
:1015C00002210CA8FFF744F9002801D072B6FEE70B
:1015D00013B030BD4038024000700040024801683E
:1015E00041F470010160704788ED00E00D49002270
:1015F0000B685A620A68136843F0010313600968B4
:10160000401E4A6A8242FCD3086A41F2111210421B
:1016100007D1086A9210104203D1086820F0010037
:10162000086070471C000020F0B502681D4B1E4C7E
:101630009F031E4D1E4E984207D0B84205D0A042CF
:1016400003D0A84201D0B04204D122F0700C4A6805
:1016500042EA0C02984210D0B8420ED0A0420CD000
:10166000A8420AD0B04208D0124CA04205D0124C79
:10167000A04202D0114CA04203D122F44074CA68A7
:1016800022434C6922F08002224302608A68C262CF
:101690000A688262984201D10969016301214161AE
:1016A000F0BD0000000001400004004000080040C0
:1016B000000C00400040014000440140004801404F
:1016C00010B5846842EA032224F47F440A4322438B
:1016D000826010BD826822F070020A4342F0070166
:1016E0008160704710B5036A046A24F00104046243
:1016F000846924F0F00444EA021423F00A020A4345
:101700008461026210BD10B5036A23F01003036206
:101710008369046A23F4704343EA023224F0A0038D
:1017200043EA01118261016210BD10B5806B002196
:10173000C185C184FFF731FC10BD01680C3151E84F
:10174000002F22F4907241E80023002BF5D10168AC
:10175000143151E8002F22F0010241E80023002B50
:10176000F5D1016B012909D101680C3151E8002F35
:1017700022F0100241E80023002BF5D1202180F84F
:101780003E1000210163704708B590F83E102229F1
:1017900001D0022008BD82684FF480539A4201D1E3
:1017A000016921B1816A9A421BD04AB10AE00268FC
:1017B000816A5268C2F308020A80816A891C08E0C3
:1017C000026972B10268526802F07F020A70816A8F
:1017D000491C8162C18D491E0904090CC18503D0D1
:1017E00019E002685268F1E70168CA6822F0200235
:1017F000CA600168CA6822F48072CA6001684A69D6
:1018000022F001024A61202180F83E10016B01297B
:1018100003D0FFF767FD002008BD002101630168C8
:101820000C3151E8002F22F0100241E80023002B78
:10183000F5D101680A68D20602D50A6849680091A4
:10184000818DFFF7A9FBE6E770B5044600680169E2
:10185000E26821F44051114301612169A068E26905
:1018600008436169114308432168CA6849F20C635F
:101870009A430243CA6020684169A26921F4407119
:101880001143416131492068884202D03049884281
:1018900002D1FFF787F801E0FFF774F8E26900234F
:1018A000192164253226B2F5004F626828D0A0FBCA
:1018B0000101930F9200FEF7DDFC0146B0FBF5F04D
:1018C0006FF01802504301EB800006EB0010B0FBF4
:1018D000F5F000F0F002B1FBF5F002EB0012B1FB05
:1018E000F5F06FF01803584301EB800006EB001091
:1018F000B0FBF5F000F00F0021681044886070BD67
:10190000A0FB010192185B41FEF7B4FC0146B0FB5D
:10191000F5F00201B1FBF5F06FF01803584301EB4D
:10192000800006EBC000B0FBF5F000F0F80002EB21
:101930004002B1FBF5F0584301EB800006EBC0001C
:10194000B0FBF5F000F00700D6E700000010014002
:10195000001401402DE9F041984617460E46044612
:10196000069D27E0681C25D02DB1FEF7D1FEA0EB27
:101970000800A8421ED920680C3050E8001F21F44E
:10198000D07140E80012002AF5D12068143050E8E8
:10199000001F21F0010140E80012002AF5D12020AB
:1019A00084F83D0084F83E00002084F83C000320C9
:1019B000BDE8F0812068006836EA000004D000200D
:1019C000B842CFD00020F3E70120F9E70148FFF744
:1019D000E5BA000064000020FEE70907090E0028B0
:1019E00004DB00F1E02080F80014704700F00F00E5
:1019F00000F1E02080F8141D704700002DE9F0414F
:101A00003A4C3B4D4FF44877A06818B100F010FAFB
:101A1000246861E000F07AF964682BE03846FEF74C
:101A200063FD641E00F050F9064621E004212846BB
:101A3000FEF761FEFA20FEF757FD04212846FEF767
:101A40005AFE00F041F93220FEF74EFD04212846EF
:101A5000FEF751FEFA20FEF747FD04212846FEF767
:101A60004AFE00F031F906463220FEF73DFD641EC5
:101A7000012E02D0032CD1DC30E0032CD6DC2DE08B
:101A80003846FEF731FD641E00F0B0F9064621E04D
:101A900010212846FEF72FFEFA20FEF725FD102123
:101AA0002846FEF728FE00F0A1F93220FEF71CFDC3
:101AB00010212846FEF71FFEFA20FEF715FD102123
:101AC0002846FEF718FE00F091F906463220FEF790
:101AD0000BFD641E012E05D0032CD1DCBDE8F041C6
:101AE00000F008B8032CD3DCF8E700000000002069
:101AF0000000024070B51B481B4D4FF4FA7480681B
:101B00004FF00306B0B110212846FEF7F4FD204641
:101B1000FEF7EAFC10212846FEF7EDFD2046FEF711
:101B2000E3FC3046761E801E0228ECD9BDE87040EA
:101B300000F0ECB804212846FEF7DDFD2046FEF754
:101B4000D3FC04212846FEF7D6FD2046FEF7CCFC48
:101B50003046761E801E0228ECD9BDE8704000F0A9
:101B600067B90000000000200000024070B500F0DE
:101B7000F9F8C0F132056420FEF7B6FC00F060F819
:101B8000C0F132046420FEF7AFFC6E1E2D220F213F
:101B900011484FF6FF73132E08D8A4F11F06132E19
:101BA00004D8C0E900211E220CA10FE0153D1D2D17
:101BB00007D8641E1D2C04D8C0E900121E220FA1F4
:101BC00004E01E2101600A46416014A1BDE8704096
:101BD0001A48FFF789BB000000000020B5B1C7B06C
:101BE000BAECB5C6CAB1BCE43435C3EBA3ACC2CCC5
:101BF000B5C6CAB1BCE43135C3EB0A00B5B1C7B054
:101C0000BAECB5C6CAB1BCE43135C3EBA3ACC2CCA7
:101C1000B5C6CAB1BCE43435C3EB0A00B5B1C7B030
:101C2000BAECB5C6CAB1BCE43330C3EBA3ACC2CC8A
:101C3000B5C6CAB1BCE43330C3EB0A00640000206F
:101C400070B501221E4D140221462846FEF75BFDA9
:101C50001420FFF7CBFC002221462846FEF753FD57
:101C6000660031462846FEF741FD0028F9D0154CA4
:101C70000020216848622068016841F0010101608C
:101C800031462846FEF732FD0128F9D02068416A26
:101C9000026A41F211131A4207D1026A9B101A42DA
:101CA00003D1026822F0010202604FF4AA7041439E
:101CB00044F62060B1FBF0F0322800DD322070BD28
:101CC000000402401C00002070B5FFF7B9FF044675
:101CD0006420FEF709FCFFF7B3FF05466420FEF71A
:101CE00003FCA54208DD4FF6FF730A2203A1064854
:101CF000FFF7FAFA012070BD002070BDD3D0B3B554
:101D0000B4B3BAECB5C600006400002010B50749B2
:101D10000020074C8860024610212046FEF7F3FCA5
:101D2000012204212046FEF7EEFC10BD0000002039
:101D300000000240FEF7FAFCFFF706FCFFF730FB5D
:101D4000FFF7ACFBFFF7DEFB00224FF40051044825
:101D5000FEF7D9FCFFF70AFFFFF750FEFAE7000095
:101D60000008024070B501221E4DD40221462846CB
:101D7000FEF7C9FC1420FFF739FC00222146284653
:101D8000FEF7C1FC660031462846FEF7AFFC00288E
:101D9000F9D0154C0020216848622068016841F0A4
:101DA0000101016031462846FEF7A0FC0128F9D068
:101DB0002068416A026A41F211131A4207D1026A8D
:101DC0009B101A4203D1026822F0010202604FF414
:101DD000AA70414344F62060B1FBF0F0322800DDE8
:101DE000322070BD000002401C00002070B5FFF7DB
:101DF000B9FF04466420FEF777FBFFF7B3FF054603
:101E00006420FEF771FBA54208DD4FF6FF730A223E
:101E100003A10648FFF768FA012070BD002070BDDD
:101E2000D3D0C8CBB4B3BAECB5C600006400002070
:101E300010B507490120074C886000220421204684
:101E4000FEF761FC012210212046FEF75CFC10BD6C
:101E500000000020000002404FF04070E1EE100A48
:101E600070470000000000000000010203040607A4
:101E70000809000000000102030400009C1E000885
:101E8000000000201C000000D0010008B81E00085F
:101E90001C000020EC060000EC0100081E00000001
:101EA0001E00000000000000010000001000000003
:081EB000000000000024F40012
:040000050800019559
:00000001FF
